{
  "contractName": "Contract",
  "abi": [
    {
      "inputs": [],
      "stateMutability": "nonpayable",
      "type": "constructor"
    },
    {
      "inputs": [
        {
          "internalType": "uint256",
          "name": "",
          "type": "uint256"
        }
      ],
      "name": "Dr_ids",
      "outputs": [
        {
          "internalType": "address",
          "name": "",
          "type": "address"
        }
      ],
      "stateMutability": "view",
      "type": "function",
      "constant": true
    },
    {
      "inputs": [
        {
          "internalType": "uint256",
          "name": "",
          "type": "uint256"
        }
      ],
      "name": "Patient_ids",
      "outputs": [
        {
          "internalType": "address",
          "name": "",
          "type": "address"
        }
      ],
      "stateMutability": "view",
      "type": "function",
      "constant": true
    },
    {
      "inputs": [
        {
          "internalType": "uint256",
          "name": "",
          "type": "uint256"
        }
      ],
      "name": "RecordHashes",
      "outputs": [
        {
          "internalType": "string",
          "name": "",
          "type": "string"
        }
      ],
      "stateMutability": "view",
      "type": "function",
      "constant": true
    },
    {
      "inputs": [],
      "name": "getAdmin",
      "outputs": [
        {
          "internalType": "address",
          "name": "",
          "type": "address"
        }
      ],
      "stateMutability": "view",
      "type": "function",
      "constant": true
    },
    {
      "inputs": [
        {
          "internalType": "address",
          "name": "_newdr",
          "type": "address"
        }
      ],
      "name": "addDoctor",
      "outputs": [],
      "stateMutability": "nonpayable",
      "type": "function"
    },
    {
      "inputs": [
        {
          "internalType": "address",
          "name": "docID",
          "type": "address"
        }
      ],
      "name": "delDoctor",
      "outputs": [],
      "stateMutability": "nonpayable",
      "type": "function"
    },
    {
      "inputs": [
        {
          "internalType": "address",
          "name": "id",
          "type": "address"
        }
      ],
      "name": "isDr",
      "outputs": [
        {
          "internalType": "string",
          "name": "",
          "type": "string"
        }
      ],
      "stateMutability": "view",
      "type": "function",
      "constant": true
    },
    {
      "inputs": [
        {
          "internalType": "address",
          "name": "id",
          "type": "address"
        }
      ],
      "name": "isPat",
      "outputs": [
        {
          "internalType": "string",
          "name": "",
          "type": "string"
        }
      ],
      "stateMutability": "view",
      "type": "function",
      "constant": true
    },
    {
      "inputs": [
        {
          "internalType": "address",
          "name": "_newpatient",
          "type": "address"
        }
      ],
      "name": "addPatient",
      "outputs": [],
      "stateMutability": "nonpayable",
      "type": "function"
    },
    {
      "inputs": [
        {
          "internalType": "address",
          "name": "iD",
          "type": "address"
        }
      ],
      "name": "getPatInfo",
      "outputs": [
        {
          "internalType": "string",
          "name": "",
          "type": "string"
        }
      ],
      "stateMutability": "view",
      "type": "function",
      "constant": true
    },
    {
      "inputs": [
        {
          "internalType": "address",
          "name": "pat_id",
          "type": "address"
        },
        {
          "internalType": "string",
          "name": "_patInfoHash",
          "type": "string"
        }
      ],
      "name": "addPatInfo",
      "outputs": [],
      "stateMutability": "nonpayable",
      "type": "function"
    },
    {
      "inputs": [
        {
          "internalType": "string",
          "name": "_recHash",
          "type": "string"
        },
        {
          "internalType": "address",
          "name": "_pat_id",
          "type": "address"
        }
      ],
      "name": "addMedRecord",
      "outputs": [],
      "stateMutability": "nonpayable",
      "type": "function"
    },
    {
      "inputs": [
        {
          "internalType": "address",
          "name": "id",
          "type": "address"
        }
      ],
      "name": "viewMedRec",
      "outputs": [
        {
          "internalType": "string",
          "name": "",
          "type": "string"
        }
      ],
      "stateMutability": "view",
      "type": "function",
      "constant": true
    }
  ],
  "bytecode": "0x608060405234801561001057600080fd5b50600a8054336001600160a01b0319909116811790915561003e90600090610043602090811b61068e17901c565b610147565b61004d82826100c4565b1561009f5760405162461bcd60e51b815260206004820152601f60248201527f526f6c65733a206163636f756e7420616c72656164792068617320726f6c650060448201526064015b60405180910390fd5b6001600160a01b0316600090815260209190915260409020805460ff19166001179055565b60006001600160a01b0382166101275760405162461bcd60e51b815260206004820152602260248201527f526f6c65733a206163636f756e7420697320746865207a65726f206164647265604482015261737360f01b6064820152608401610096565b506001600160a01b03166000908152602091909152604090205460ff1690565b610b04806101566000396000f3fe608060405234801561001057600080fd5b50600436106100cf5760003560e01c80636d263ceb1161008c578063be95687311610066578063be956873146101a9578063c979783f146101bc578063cc572914146101cf578063f1a1d7d5146101e257600080fd5b80636d263ceb146101725780636e9960c314610185578063720d5b4b1461019657600080fd5b806311f67285146100d45780632f4a4dcb146100e95780633c52554b146101195780634780468f1461013957806358dae14f1461014c5780635ae3e0181461015f575b600080fd5b6100e76100e2366004610967565b6101f5565b005b6100fc6100f73660046109b5565b61027e565b6040516001600160a01b0390911681526020015b60405180910390f35b61012c6101273660046109ce565b6102a8565b60405161011091906109f0565b6100e76101473660046109ce565b610354565b61012c61015a3660046109b5565b6103af565b6100e761016d3660046109ce565b61045b565b6100e76101803660046109ce565b6104ae565b600a546001600160a01b03166100fc565b61012c6101a43660046109ce565b61050e565b61012c6101b73660046109ce565b610577565b6100fc6101ca3660046109b5565b610584565b61012c6101dd3660046109ce565b610594565b6100e76101f0366004610a45565b6105bb565b6001600160a01b03821660009081526004602090815260409091208251909161022291839185019061080f565b50600780546001810182556000919091527fa66cc928b5edb82af9bd49922954155ab7b0942694bea4ce44661d9a8736c6880180546001600160a01b0319166001600160a01b03851617905561027960028461068e565b505050565b6007818154811061028e57600080fd5b6000918252602090912001546001600160a01b0316905081565b6001600160a01b03811660009081526005602052604090208054606091906102cf90610a93565b80601f01602080910402602001604051908101604052809291908181526020018280546102fb90610a93565b80156103485780601f1061031d57610100808354040283529160200191610348565b820191906000526020600020905b81548152906001019060200180831161032b57829003601f168201915b50505050509050919050565b61035f60003361070a565b6103a15760405162461bcd60e51b815260206004820152600e60248201526d27b7363c902337b91020b236b4b760911b60448201526064015b60405180910390fd5b6103ac60018261068e565b50565b600881815481106103bf57600080fd5b9060005260206000200160009150905080546103da90610a93565b80601f016020809104026020016040519081016040528092919081815260200182805461040690610a93565b80156104535780601f1061042857610100808354040283529160200191610453565b820191906000526020600020905b81548152906001019060200180831161043657829003601f168201915b505050505081565b61046660003361070a565b6104a35760405162461bcd60e51b815260206004820152600e60248201526d27b7363c902337b91020b236b4b760911b6044820152606401610398565b6103ac60018261078d565b6104b960003361070a565b15156001146105035760405162461bcd60e51b815260206004820152601660248201527513db9b1e4810591b5a5b8810d85b88111bc8151a185d60521b6044820152606401610398565b6103ac60028261068e565b606061051b60028361070a565b61055a5760405162461bcd60e51b815260206004820152601060248201526f4f6e6c7920666f7220446f63746f727360801b6044820152606401610398565b50506040805180820190915260018152603160f81b602082015290565b606061051b60018361070a565b6006818154811061028e57600080fd5b6001600160a01b03811660009081526004602052604090208054606091906102cf90610a93565b6105c660013361070a565b15156001146106175760405162461bcd60e51b815260206004820152601760248201527f4f6e6c7920446f63746f722043616e20446f20546861740000000000000000006044820152606401610398565b6001600160a01b03811660009081526005602090815260409091208351909161064491839186019061080f565b50600880546001810182556000919091528351610688917ff3f7a9fe364faab93b216da50a3214154f22a0a2b415b23a84c8169e8b636ee30190602086019061080f565b50505050565b610698828261070a565b156106e55760405162461bcd60e51b815260206004820152601f60248201527f526f6c65733a206163636f756e7420616c72656164792068617320726f6c65006044820152606401610398565b6001600160a01b0316600090815260209190915260409020805460ff19166001179055565b60006001600160a01b03821661076d5760405162461bcd60e51b815260206004820152602260248201527f526f6c65733a206163636f756e7420697320746865207a65726f206164647265604482015261737360f01b6064820152608401610398565b506001600160a01b03166000908152602091909152604090205460ff1690565b610797828261070a565b6107ed5760405162461bcd60e51b815260206004820152602160248201527f526f6c65733a206163636f756e7420646f6573206e6f74206861766520726f6c6044820152606560f81b6064820152608401610398565b6001600160a01b0316600090815260209190915260409020805460ff19169055565b82805461081b90610a93565b90600052602060002090601f01602090048101928261083d5760008555610883565b82601f1061085657805160ff1916838001178555610883565b82800160010185558215610883579182015b82811115610883578251825591602001919060010190610868565b5061088f929150610893565b5090565b5b8082111561088f5760008155600101610894565b80356001600160a01b03811681146108bf57600080fd5b919050565b634e487b7160e01b600052604160045260246000fd5b600082601f8301126108eb57600080fd5b813567ffffffffffffffff80821115610906576109066108c4565b604051601f8301601f19908116603f0116810190828211818310171561092e5761092e6108c4565b8160405283815286602085880101111561094757600080fd5b836020870160208301376000602085830101528094505050505092915050565b6000806040838503121561097a57600080fd5b610983836108a8565b9150602083013567ffffffffffffffff81111561099f57600080fd5b6109ab858286016108da565b9150509250929050565b6000602082840312156109c757600080fd5b5035919050565b6000602082840312156109e057600080fd5b6109e9826108a8565b9392505050565b600060208083528351808285015260005b81811015610a1d57858101830151858201604001528201610a01565b81811115610a2f576000604083870101525b50601f01601f1916929092016040019392505050565b60008060408385031215610a5857600080fd5b823567ffffffffffffffff811115610a6f57600080fd5b610a7b858286016108da565b925050610a8a602084016108a8565b90509250929050565b600181811c90821680610aa757607f821691505b60208210811415610ac857634e487b7160e01b600052602260045260246000fd5b5091905056fea2646970667358221220e3fa72cafed5f53781cc3ad481963e6786864872261ab2a6dac5ee522b84eec764736f6c634300080b0033",
  "immutableReferences": {},
  "source": "// SPDX-License-Identifier: MIT\r\npragma solidity >= 0.4.21;\r\n\r\nimport './Roles.sol';\r\n\r\ncontract Contract{\r\n\r\n    using Roles for Roles.Role;\r\n\r\n    Roles.Role private admin;\r\n    Roles.Role private doctor;\r\n    Roles.Role private patient;\r\n\r\n    struct Doctor{\r\n        string drHash;\r\n    }\r\n\r\n    struct Patient{\r\n        string patHash;\r\n    }\r\n\r\n    struct MedRec{\r\n        string RecordHash;\r\n    }\r\n\r\n    mapping(address => Doctor) Doctors;\r\n    mapping(address => Patient) Patients;\r\n    mapping(address => MedRec) Records;\r\n\r\n    address[] public Dr_ids;\r\n    address[] public Patient_ids;\r\n    string[] public RecordHashes;\r\n\r\n    address accountId;\r\n    address admin_id;\r\n    address get_patient_id;\r\n    address get_dr_id;\r\n\r\n    constructor() {\r\n        admin_id = msg.sender;\r\n        admin.add(admin_id);\r\n    }\r\n\r\n    //get Admin\r\n\r\n    function getAdmin() public view returns(address){\r\n        return admin_id;\r\n    }\r\n\r\n\r\n    //Add Doctor\r\n\r\n    function addDoctor(address _newdr) public{\r\n        require(admin.has(msg.sender), 'Only For Admin'); \r\n        doctor.add(_newdr);\r\n    }\r\n\r\n    function delDoctor(address docID) public {\r\n        require(admin.has(msg.sender), 'Only For Admin');\r\n        doctor.remove(docID);\r\n    }\r\n\r\n   // check is Doctor\r\n\r\n    function isDr(address id) public view returns(string memory){\r\n        require(doctor.has(id), \"Only for Doctors\");\r\n        return \"1\";\r\n    }\r\n\r\n    // Check is Patient\r\n\r\n    function isPat(address id) public view returns(string memory){\r\n        require(patient.has(id), \"Only for Doctors\");\r\n        return \"1\";\r\n    }\r\n\r\n    //  Add patient\r\n\r\n    function addPatient(address _newpatient) external onlyAdmin() {\r\n        patient.add(_newpatient);\r\n    }\r\n\r\n    // Get Patient Information => retrun pateint IPFS hash\r\n\r\n    function getPatInfo(address iD)public view returns(string memory){\r\n        return (Patients[iD].patHash);\r\n    }\r\n\r\n    // Add patient Information to BlockChain\r\n\r\n    function addPatInfo(address pat_id, string memory _patInfoHash) public {\r\n        Patient storage patInfo = Patients[pat_id];\r\n        patInfo.patHash = _patInfoHash;\r\n        Patient_ids.push(pat_id);\r\n\r\n        patient.add(pat_id);\r\n    }\r\n\r\n    // Add Medical record to block chain\r\n\r\n    function addMedRecord(string memory _recHash, address _pat_id) public{\r\n        require(doctor.has(msg.sender) == true, 'Only Doctor Can Do That');\r\n\r\n        MedRec storage record = Records[_pat_id];\r\n        record.RecordHash = _recHash;\r\n        RecordHashes.push(_recHash);\r\n    }\r\n\r\n    // View Medical record return IPFS hash of record\r\n    \r\n    function viewMedRec(address id)public view returns(string memory){\r\n        return (Records[id].RecordHash);\r\n    }\r\n\r\n    /*\r\n        Modifiers\r\n    */\r\n\r\n\r\n    modifier onlyAdmin(){\r\n        require(admin.has(msg.sender) == true, 'Only Admin Can Do That');\r\n        _;\r\n    }\r\n    modifier onlyDoctor(){\r\n        require(doctor.has(msg.sender) == true, 'Only Doctor Can Do That');\r\n        _;\r\n    }\r\n    modifier onlyPatient(){\r\n        require(patient.has(msg.sender) == true, 'Only Admin Can Do That');\r\n        _;\r\n    }\r\n\r\n}",
  "sourcePath": "/Users/nani/Desktop/EHR-2.0/Client/contracts/Contract.sol",
  "compiler": {
    "name": "solc",
    "version": "0.8.11+commit.d7f03943.Emscripten.clang"
  },
  "schemaVersion": "3.4.14",
  "updatedAt": "2023-05-29T17:18:23.606Z",
  "networkType": "ethereum",
  "devdoc": {
    "kind": "dev",
    "methods": {},
    "version": 1
  },
  "userdoc": {
    "kind": "user",
    "methods": {},
    "version": 1
  }
}